{
  "_format": "hh-sol-artifact-1",
  "contractName": "Escrow",
  "sourceName": "contracts/Escrow.sol",
  "abi": [
    {
      "inputs": [],
      "stateMutability": "nonpayable",
      "type": "constructor"
    },
    {
      "anonymous": false,
      "inputs": [
        {
          "indexed": false,
          "internalType": "address",
          "name": "_organizationUser",
          "type": "address"
        },
        {
          "indexed": false,
          "internalType": "address",
          "name": "_contributorUser",
          "type": "address"
        },
        {
          "indexed": false,
          "internalType": "uint256",
          "name": "_escrowIndex",
          "type": "uint256"
        }
      ],
      "name": "DecisionNotification",
      "type": "event"
    },
    {
      "anonymous": false,
      "inputs": [
        {
          "indexed": true,
          "internalType": "address",
          "name": "previousOwner",
          "type": "address"
        },
        {
          "indexed": true,
          "internalType": "address",
          "name": "newOwner",
          "type": "address"
        }
      ],
      "name": "OwnershipTransferred",
      "type": "event"
    },
    {
      "inputs": [
        {
          "internalType": "address",
          "name": "",
          "type": "address"
        },
        {
          "internalType": "uint256",
          "name": "",
          "type": "uint256"
        }
      ],
      "name": "contributorsHistory",
      "outputs": [
        {
          "internalType": "address",
          "name": "organizationUser",
          "type": "address"
        },
        {
          "internalType": "uint256",
          "name": "projectId",
          "type": "uint256"
        },
        {
          "internalType": "uint256",
          "name": "transactionAmmount",
          "type": "uint256"
        },
        {
          "internalType": "uint256",
          "name": "transactionNumber",
          "type": "uint256"
        }
      ],
      "stateMutability": "view",
      "type": "function"
    },
    {
      "inputs": [
        {
          "internalType": "uint256",
          "name": "decision_",
          "type": "uint256"
        },
        {
          "internalType": "address payable",
          "name": "contributorAddress_",
          "type": "address"
        },
        {
          "internalType": "address payable",
          "name": "organizationAddress_",
          "type": "address"
        },
        {
          "internalType": "uint256",
          "name": "projectId_",
          "type": "uint256"
        },
        {
          "internalType": "uint256",
          "name": "transactionAmmount_",
          "type": "uint256"
        }
      ],
      "name": "escrowDecision",
      "outputs": [
        {
          "internalType": "bool",
          "name": "",
          "type": "bool"
        }
      ],
      "stateMutability": "payable",
      "type": "function"
    },
    {
      "inputs": [],
      "name": "getDecisionRetentionFee",
      "outputs": [
        {
          "internalType": "uint256",
          "name": "",
          "type": "uint256"
        }
      ],
      "stateMutability": "view",
      "type": "function"
    },
    {
      "inputs": [],
      "name": "getImpactContFee",
      "outputs": [
        {
          "internalType": "uint256",
          "name": "",
          "type": "uint256"
        }
      ],
      "stateMutability": "view",
      "type": "function"
    },
    {
      "inputs": [],
      "name": "getImpactOrgFee",
      "outputs": [
        {
          "internalType": "uint256",
          "name": "",
          "type": "uint256"
        }
      ],
      "stateMutability": "view",
      "type": "function"
    },
    {
      "inputs": [],
      "name": "getNoImpactContFee",
      "outputs": [
        {
          "internalType": "uint256",
          "name": "",
          "type": "uint256"
        }
      ],
      "stateMutability": "view",
      "type": "function"
    },
    {
      "inputs": [],
      "name": "getNoImpactOrgFee",
      "outputs": [
        {
          "internalType": "uint256",
          "name": "",
          "type": "uint256"
        }
      ],
      "stateMutability": "view",
      "type": "function"
    },
    {
      "inputs": [
        {
          "internalType": "address",
          "name": "organizationAddress_",
          "type": "address"
        },
        {
          "internalType": "address",
          "name": "contributorAddress_",
          "type": "address"
        },
        {
          "internalType": "uint256",
          "name": "projectId_",
          "type": "uint256"
        },
        {
          "internalType": "uint256",
          "name": "transactionAmmount_",
          "type": "uint256"
        }
      ],
      "name": "getSpecificEscrow",
      "outputs": [
        {
          "components": [
            {
              "internalType": "address",
              "name": "contributor",
              "type": "address"
            },
            {
              "internalType": "uint256",
              "name": "projectId",
              "type": "uint256"
            },
            {
              "internalType": "uint256",
              "name": "netAmmount",
              "type": "uint256"
            },
            {
              "internalType": "uint256",
              "name": "organizationFee",
              "type": "uint256"
            },
            {
              "internalType": "uint256",
              "name": "contributorFee",
              "type": "uint256"
            },
            {
              "internalType": "bool",
              "name": "isInProgress",
              "type": "bool"
            },
            {
              "internalType": "bool",
              "name": "isFinished",
              "type": "bool"
            },
            {
              "internalType": "bool",
              "name": "isCanceled",
              "type": "bool"
            }
          ],
          "internalType": "struct Escrow.EscrowData",
          "name": "",
          "type": "tuple"
        }
      ],
      "stateMutability": "view",
      "type": "function"
    },
    {
      "inputs": [
        {
          "internalType": "address",
          "name": "_organizationAddress",
          "type": "address"
        },
        {
          "internalType": "address",
          "name": "_contributorAddress",
          "type": "address"
        },
        {
          "internalType": "uint256",
          "name": "_projectId",
          "type": "uint256"
        },
        {
          "internalType": "uint256",
          "name": "_transactionAmmount",
          "type": "uint256"
        }
      ],
      "name": "getTransactionIndex",
      "outputs": [
        {
          "internalType": "uint256",
          "name": "",
          "type": "uint256"
        }
      ],
      "stateMutability": "view",
      "type": "function"
    },
    {
      "inputs": [
        {
          "internalType": "address",
          "name": "_organizationAddress",
          "type": "address"
        },
        {
          "internalType": "address",
          "name": "_contributorAddress",
          "type": "address"
        },
        {
          "internalType": "uint256",
          "name": "_projectId",
          "type": "uint256"
        },
        {
          "internalType": "uint256",
          "name": "_transactionAmmount",
          "type": "uint256"
        }
      ],
      "name": "getTransactionNumber",
      "outputs": [
        {
          "internalType": "uint256",
          "name": "",
          "type": "uint256"
        }
      ],
      "stateMutability": "view",
      "type": "function"
    },
    {
      "inputs": [],
      "name": "isOwner",
      "outputs": [
        {
          "internalType": "bool",
          "name": "",
          "type": "bool"
        }
      ],
      "stateMutability": "view",
      "type": "function"
    },
    {
      "inputs": [
        {
          "internalType": "address",
          "name": "_contributorAddress",
          "type": "address"
        },
        {
          "internalType": "uint256",
          "name": "_projectId",
          "type": "uint256"
        },
        {
          "internalType": "uint256",
          "name": "_orgType",
          "type": "uint256"
        }
      ],
      "name": "newEscrow",
      "outputs": [
        {
          "internalType": "bool",
          "name": "",
          "type": "bool"
        }
      ],
      "stateMutability": "payable",
      "type": "function"
    },
    {
      "inputs": [
        {
          "internalType": "address",
          "name": "",
          "type": "address"
        },
        {
          "internalType": "uint256",
          "name": "",
          "type": "uint256"
        }
      ],
      "name": "organizationsHistory",
      "outputs": [
        {
          "internalType": "address",
          "name": "contributor",
          "type": "address"
        },
        {
          "internalType": "uint256",
          "name": "projectId",
          "type": "uint256"
        },
        {
          "internalType": "uint256",
          "name": "netAmmount",
          "type": "uint256"
        },
        {
          "internalType": "uint256",
          "name": "organizationFee",
          "type": "uint256"
        },
        {
          "internalType": "uint256",
          "name": "contributorFee",
          "type": "uint256"
        },
        {
          "internalType": "bool",
          "name": "isInProgress",
          "type": "bool"
        },
        {
          "internalType": "bool",
          "name": "isFinished",
          "type": "bool"
        },
        {
          "internalType": "bool",
          "name": "isCanceled",
          "type": "bool"
        }
      ],
      "stateMutability": "view",
      "type": "function"
    },
    {
      "inputs": [],
      "name": "owner",
      "outputs": [
        {
          "internalType": "address",
          "name": "",
          "type": "address"
        }
      ],
      "stateMutability": "view",
      "type": "function"
    },
    {
      "inputs": [],
      "name": "renounceOwnership",
      "outputs": [],
      "stateMutability": "nonpayable",
      "type": "function"
    },
    {
      "inputs": [
        {
          "internalType": "uint256",
          "name": "newFee",
          "type": "uint256"
        }
      ],
      "name": "setDecisionRetentionFee",
      "outputs": [],
      "stateMutability": "nonpayable",
      "type": "function"
    },
    {
      "inputs": [
        {
          "internalType": "uint256",
          "name": "newFee",
          "type": "uint256"
        }
      ],
      "name": "setImpactContFee",
      "outputs": [],
      "stateMutability": "nonpayable",
      "type": "function"
    },
    {
      "inputs": [
        {
          "internalType": "uint256",
          "name": "newFee",
          "type": "uint256"
        }
      ],
      "name": "setImpactOrgFee",
      "outputs": [],
      "stateMutability": "nonpayable",
      "type": "function"
    },
    {
      "inputs": [
        {
          "internalType": "uint256",
          "name": "newFee",
          "type": "uint256"
        }
      ],
      "name": "setNoImpactContFee",
      "outputs": [],
      "stateMutability": "nonpayable",
      "type": "function"
    },
    {
      "inputs": [
        {
          "internalType": "uint256",
          "name": "newFee",
          "type": "uint256"
        }
      ],
      "name": "setNoImpactOrgFee",
      "outputs": [],
      "stateMutability": "nonpayable",
      "type": "function"
    },
    {
      "inputs": [
        {
          "internalType": "address payable",
          "name": "contributorAddress_",
          "type": "address"
        },
        {
          "internalType": "uint256",
          "name": "projectId_",
          "type": "uint256"
        },
        {
          "internalType": "uint256",
          "name": "transactionAmmount_",
          "type": "uint256"
        }
      ],
      "name": "transferFunds",
      "outputs": [
        {
          "internalType": "bool",
          "name": "",
          "type": "bool"
        }
      ],
      "stateMutability": "payable",
      "type": "function"
    },
    {
      "inputs": [
        {
          "internalType": "address",
          "name": "newOwner",
          "type": "address"
        }
      ],
      "name": "transferOwnership",
      "outputs": [],
      "stateMutability": "nonpayable",
      "type": "function"
    }
  ],
  "bytecode": "0x6080604052600a60025560056003556003600455600260055560016006553480156200002a57600080fd5b5060006200003d6200019260201b60201c565b9050806000806101000a81548173ffffffffffffffffffffffffffffffffffffffff021916908373ffffffffffffffffffffffffffffffffffffffff1602179055508073ffffffffffffffffffffffffffffffffffffffff16600073ffffffffffffffffffffffffffffffffffffffff167f8be0079c531659141344cd1fd0a4f28419497f9722a3daafe3b4186f6b6457e060405160405180910390a3506000620000ed6200019260201b60201c565b905080600160006101000a81548173ffffffffffffffffffffffffffffffffffffffff021916908373ffffffffffffffffffffffffffffffffffffffff1602179055508073ffffffffffffffffffffffffffffffffffffffff16600073ffffffffffffffffffffffffffffffffffffffff167f8be0079c531659141344cd1fd0a4f28419497f9722a3daafe3b4186f6b6457e060405160405180910390a3506200019a565b600033905090565b6132bd80620001aa6000396000f3fe6080604052600436106101355760003560e01c80638da5cb5b116100ab578063caea0d791161006f578063caea0d7914610409578063d3c8fc2114610446578063d7602bc014610483578063e0b1572b146104c0578063ee809b02146104eb578063f2fde38b1461051657610135565b80638da5cb5b1461031a5780638f32d59b146103455780639b4bb1c2146103705780639fd88df0146103a0578063be3255a1146103e057610135565b806336e872df116100fd57806336e872df146102105780634c62dac41461023b578063653ebf4014610266578063699c396e146102aa578063715018a6146102da5780637f7f9c67146102f157610135565b806310a3c7c81461013a5780631482b51b146101655780631fbfb2d11461018e578063331e6f54146101b757806334ad7075146101e0575b600080fd5b34801561014657600080fd5b5061014f61053f565b60405161015c9190612d64565b60405180910390f35b34801561017157600080fd5b5061018c60048036038101906101879190612797565b610549565b005b34801561019a57600080fd5b506101b560048036038101906101b09190612797565b61059c565b005b3480156101c357600080fd5b506101de60048036038101906101d99190612797565b6105ef565b005b6101fa60048036038101906101f5919061265a565b610642565b6040516102079190612bed565b60405180910390f35b34801561021c57600080fd5b50610225610b52565b6040516102329190612d64565b60405180910390f35b34801561024757600080fd5b50610250610b5c565b60405161025d9190612d64565b60405180910390f35b34801561027257600080fd5b5061028d6004803603810190610288919061270c565b610b66565b6040516102a1989796959493929190612b6f565b60405180910390f35b6102c460048036038101906102bf9190612748565b610c12565b6040516102d19190612bed565b60405180910390f35b3480156102e657600080fd5b506102ef61109c565b005b3480156102fd57600080fd5b5061031860048036038101906103139190612797565b6111a1565b005b34801561032657600080fd5b5061032f6111f4565b60405161033c9190612ad8565b60405180910390f35b34801561035157600080fd5b5061035a61121d565b6040516103679190612bed565b60405180910390f35b61038a600480360381019061038591906127c0565b61127b565b6040516103979190612bed565b60405180910390f35b3480156103ac57600080fd5b506103c760048036038101906103c2919061270c565b6119b1565b6040516103d79493929190612b2a565b60405180910390f35b3480156103ec57600080fd5b5061040760048036038101906104029190612797565b611a1e565b005b34801561041557600080fd5b50610430600480360381019061042b91906126a9565b611a71565b60405161043d9190612d64565b60405180910390f35b34801561045257600080fd5b5061046d600480360381019061046891906126a9565b611d83565b60405161047a9190612d48565b60405180910390f35b34801561048f57600080fd5b506104aa60048036038101906104a591906126a9565b611f82565b6040516104b79190612d64565b60405180910390f35b3480156104cc57600080fd5b506104d561220c565b6040516104e29190612d64565b60405180910390f35b3480156104f757600080fd5b50610500612216565b60405161050d9190612d64565b60405180910390f35b34801561052257600080fd5b5061053d60048036038101906105389190612631565b612220565b005b6000600654905090565b61055161121d565b610590576040517f08c379a000000000000000000000000000000000000000000000000000000000815260040161058790612ce8565b60405180910390fd5b61059981612273565b50565b6105a461121d565b6105e3576040517f08c379a00000000000000000000000000000000000000000000000000000000081526004016105da90612ce8565b60405180910390fd5b6105ec81612291565b50565b6105f761121d565b610636576040517f08c379a000000000000000000000000000000000000000000000000000000000815260040161062d90612ce8565b60405180910390fd5b61063f816122af565b50565b600061064f8484846122cd565b61068e576040517f08c379a000000000000000000000000000000000000000000000000000000000815260040161068590612cc8565b60405180910390fd5b6000600161069e33878787611a71565b6106a89190612e7c565b905060001515600760003373ffffffffffffffffffffffffffffffffffffffff1673ffffffffffffffffffffffffffffffffffffffff1681526020019081526020016000208281548110610725577f4e487b7100000000000000000000000000000000000000000000000000000000600052603260045260246000fd5b906000526020600020906006020160050160029054906101000a900460ff16151514610786576040517f08c379a000000000000000000000000000000000000000000000000000000000815260040161077d90612c48565b60405180910390fd5b60008573ffffffffffffffffffffffffffffffffffffffff16600760003373ffffffffffffffffffffffffffffffffffffffff1673ffffffffffffffffffffffffffffffffffffffff1681526020019081526020016000208381548110610816577f4e487b7100000000000000000000000000000000000000000000000000000000600052603260045260246000fd5b90600052602060002090600602016002015460405161083490612ac3565b60006040518083038185875af1925050503d8060008114610871576040519150601f19603f3d011682016040523d82523d6000602084013e610876565b606091505b50509050806108ba576040517f08c379a00000000000000000000000000000000000000000000000000000000081526004016108b190612d08565b60405180910390fd5b6000600160009054906101000a900473ffffffffffffffffffffffffffffffffffffffff1673ffffffffffffffffffffffffffffffffffffffff16600760003373ffffffffffffffffffffffffffffffffffffffff1673ffffffffffffffffffffffffffffffffffffffff168152602001908152602001600020848154811061096c577f4e487b7100000000000000000000000000000000000000000000000000000000600052603260045260246000fd5b906000526020600020906006020160040154600760003373ffffffffffffffffffffffffffffffffffffffff1673ffffffffffffffffffffffffffffffffffffffff16815260200190815260200160002085815481106109f5577f4e487b7100000000000000000000000000000000000000000000000000000000600052603260045260246000fd5b906000526020600020906006020160030154610a119190612d9b565b604051610a1d90612ac3565b60006040518083038185875af1925050503d8060008114610a5a576040519150601f19603f3d011682016040523d82523d6000602084013e610a5f565b606091505b5050905080610aa3576040517f08c379a0000000000000000000000000000000000000000000000000000000008152600401610a9a90612ca8565b60405180910390fd5b6001600760003373ffffffffffffffffffffffffffffffffffffffff1673ffffffffffffffffffffffffffffffffffffffff1681526020019081526020016000208481548110610b1c577f4e487b7100000000000000000000000000000000000000000000000000000000600052603260045260246000fd5b906000526020600020906006020160050160016101000a81548160ff021916908315150217905550600193505050509392505050565b6000600454905090565b6000600554905090565b60076020528160005260406000208181548110610b8257600080fd5b9060005260206000209060060201600091509150508060000160009054906101000a900473ffffffffffffffffffffffffffffffffffffffff16908060010154908060020154908060030154908060040154908060050160009054906101000a900460ff16908060050160019054906101000a900460ff16908060050160029054906101000a900460ff16905088565b60008034118015610c3a5750343373ffffffffffffffffffffffffffffffffffffffff163110155b8015610c7257508373ffffffffffffffffffffffffffffffffffffffff163373ffffffffffffffffffffffffffffffffffffffff1614155b610c7b57600080fd5b610c83612553565b610c8b6125b4565b85826000019073ffffffffffffffffffffffffffffffffffffffff16908173ffffffffffffffffffffffffffffffffffffffff1681525050848260200181815250506000806001861415610cf257610ce1610b52565b9150610ceb61220c565b9050610d11565b6002861415610d1057610d03610b5c565b9150610d0d612216565b90505b5b600082118015610d215750600081115b610d60576040517f08c379a0000000000000000000000000000000000000000000000000000000008152600401610d5790612d28565b60405180910390fd5b600081606434610d709190612df1565b610d7a9190612e22565b9050600083606434610d8c9190612df1565b610d969190612e22565b905060008282610da69190612d9b565b905060008134610db69190612e7c565b905060018860a001901515908115158152505080886040018181525050828860600181815250508388608001818152505033876000019073ffffffffffffffffffffffffffffffffffffffff16908173ffffffffffffffffffffffffffffffffffffffff16815250508a87602001818152505034876040018181525050600760003373ffffffffffffffffffffffffffffffffffffffff1673ffffffffffffffffffffffffffffffffffffffff16815260200190815260200160002080549050876060018181525050600860008d73ffffffffffffffffffffffffffffffffffffffff1673ffffffffffffffffffffffffffffffffffffffff16815260200190815260200160002087908060018154018082558091505060019003906000526020600020906004020160009091909190915060008201518160000160006101000a81548173ffffffffffffffffffffffffffffffffffffffff021916908373ffffffffffffffffffffffffffffffffffffffff1602179055506020820151816001015560408201518160020155606082015181600301555050600760003373ffffffffffffffffffffffffffffffffffffffff1673ffffffffffffffffffffffffffffffffffffffff16815260200190815260200160002088908060018154018082558091505060019003906000526020600020906006020160009091909190915060008201518160000160006101000a81548173ffffffffffffffffffffffffffffffffffffffff021916908373ffffffffffffffffffffffffffffffffffffffff1602179055506020820151816001015560408201518160020155606082015181600301556080820151816004015560a08201518160050160006101000a81548160ff02191690831515021790555060c08201518160050160016101000a81548160ff02191690831515021790555060e08201518160050160026101000a81548160ff02191690831515021790555050506001985050505050505050509392505050565b6110a461121d565b6110e3576040517f08c379a00000000000000000000000000000000000000000000000000000000081526004016110da90612ce8565b60405180910390fd5b600073ffffffffffffffffffffffffffffffffffffffff1660008054906101000a900473ffffffffffffffffffffffffffffffffffffffff1673ffffffffffffffffffffffffffffffffffffffff167f8be0079c531659141344cd1fd0a4f28419497f9722a3daafe3b4186f6b6457e060405160405180910390a360008060006101000a81548173ffffffffffffffffffffffffffffffffffffffff021916908373ffffffffffffffffffffffffffffffffffffffff160217905550565b6111a961121d565b6111e8576040517f08c379a00000000000000000000000000000000000000000000000000000000081526004016111df90612ce8565b60405180910390fd5b6111f1816123e2565b50565b60008060009054906101000a900473ffffffffffffffffffffffffffffffffffffffff16905090565b60008060009054906101000a900473ffffffffffffffffffffffffffffffffffffffff1673ffffffffffffffffffffffffffffffffffffffff1661125f612400565b73ffffffffffffffffffffffffffffffffffffffff1614905090565b600061128561121d565b6112c4576040517f08c379a00000000000000000000000000000000000000000000000000000000081526004016112bb90612ce8565b60405180910390fd5b600060016112d486888787611a71565b6112de9190612e7c565b905060001515600760008773ffffffffffffffffffffffffffffffffffffffff1673ffffffffffffffffffffffffffffffffffffffff168152602001908152602001600020828154811061135b577f4e487b7100000000000000000000000000000000000000000000000000000000600052603260045260246000fd5b906000526020600020906006020160050160029054906101000a900460ff1615151461138657600080fd5b60008714156115c957600061139961053f565b6064856113a69190612df1565b6113b09190612e22565b905060008673ffffffffffffffffffffffffffffffffffffffff163a83876113d89190612e7c565b6113e29190612e7c565b6040516113ee90612ac3565b60006040518083038185875af1925050503d806000811461142b576040519150601f19603f3d011682016040523d82523d6000602084013e611430565b606091505b5050905080611474576040517f08c379a000000000000000000000000000000000000000000000000000000000815260040161146b90612c88565b60405180910390fd5b60003373ffffffffffffffffffffffffffffffffffffffff168360405161149a90612ac3565b60006040518083038185875af1925050503d80600081146114d7576040519150601f19603f3d011682016040523d82523d6000602084013e6114dc565b606091505b5050905080611520576040517f08c379a000000000000000000000000000000000000000000000000000000000815260040161151790612c68565b60405180910390fd5b6001600760008a73ffffffffffffffffffffffffffffffffffffffff1673ffffffffffffffffffffffffffffffffffffffff1681526020019081526020016000208581548110611599577f4e487b7100000000000000000000000000000000000000000000000000000000600052603260045260246000fd5b906000526020600020906006020160050160026101000a81548160ff021916908315150217905550505050611968565b60008673ffffffffffffffffffffffffffffffffffffffff16600760008873ffffffffffffffffffffffffffffffffffffffff1673ffffffffffffffffffffffffffffffffffffffff1681526020019081526020016000208381548110611659577f4e487b7100000000000000000000000000000000000000000000000000000000600052603260045260246000fd5b90600052602060002090600602016002015460405161167790612ac3565b60006040518083038185875af1925050503d80600081146116b4576040519150601f19603f3d011682016040523d82523d6000602084013e6116b9565b606091505b50509050806116fd576040517f08c379a00000000000000000000000000000000000000000000000000000000081526004016116f490612c28565b60405180910390fd5b60003373ffffffffffffffffffffffffffffffffffffffff16600760008973ffffffffffffffffffffffffffffffffffffffff1673ffffffffffffffffffffffffffffffffffffffff168152602001908152602001600020848154811061178d577f4e487b7100000000000000000000000000000000000000000000000000000000600052603260045260246000fd5b906000526020600020906006020160030154600760008a73ffffffffffffffffffffffffffffffffffffffff1673ffffffffffffffffffffffffffffffffffffffff1681526020019081526020016000208581548110611816577f4e487b7100000000000000000000000000000000000000000000000000000000600052603260045260246000fd5b9060005260206000209060060201600301546118329190612d9b565b60405161183e90612ac3565b60006040518083038185875af1925050503d806000811461187b576040519150601f19603f3d011682016040523d82523d6000602084013e611880565b606091505b50509050806118c4576040517f08c379a00000000000000000000000000000000000000000000000000000000081526004016118bb90612c68565b60405180910390fd5b6001600760008973ffffffffffffffffffffffffffffffffffffffff1673ffffffffffffffffffffffffffffffffffffffff168152602001908152602001600020848154811061193d577f4e487b7100000000000000000000000000000000000000000000000000000000600052603260045260246000fd5b906000526020600020906006020160050160026101000a81548160ff02191690831515021790555050505b7fcd64047317b01d5cfeec0fa7844c16212857b7cbf50ef5ae91bd566eedabfd4d85878360405161199b93929190612af3565b60405180910390a1600191505095945050505050565b600860205281600052604060002081815481106119cd57600080fd5b9060005260206000209060040201600091509150508060000160009054906101000a900473ffffffffffffffffffffffffffffffffffffffff16908060010154908060020154908060030154905084565b611a2661121d565b611a65576040517f08c379a0000000000000000000000000000000000000000000000000000000008152600401611a5c90612ce8565b60405180910390fd5b611a6e81612408565b50565b6000806000905060005b600860008773ffffffffffffffffffffffffffffffffffffffff1673ffffffffffffffffffffffffffffffffffffffff16815260200190815260200160002080549050811015611d76578673ffffffffffffffffffffffffffffffffffffffff16600860008873ffffffffffffffffffffffffffffffffffffffff1673ffffffffffffffffffffffffffffffffffffffff1681526020019081526020016000208281548110611b53577f4e487b7100000000000000000000000000000000000000000000000000000000600052603260045260246000fd5b906000526020600020906004020160000160009054906101000a900473ffffffffffffffffffffffffffffffffffffffff1673ffffffffffffffffffffffffffffffffffffffff16148015611c2f575084600860008873ffffffffffffffffffffffffffffffffffffffff1673ffffffffffffffffffffffffffffffffffffffff1681526020019081526020016000208281548110611c1b577f4e487b7100000000000000000000000000000000000000000000000000000000600052603260045260246000fd5b906000526020600020906004020160010154145b8015611cc2575083600860008873ffffffffffffffffffffffffffffffffffffffff1673ffffffffffffffffffffffffffffffffffffffff1681526020019081526020016000208281548110611cae577f4e487b7100000000000000000000000000000000000000000000000000000000600052603260045260246000fd5b906000526020600020906004020160020154145b15611d63576001600860008873ffffffffffffffffffffffffffffffffffffffff1673ffffffffffffffffffffffffffffffffffffffff1681526020019081526020016000208281548110611d40577f4e487b7100000000000000000000000000000000000000000000000000000000600052603260045260246000fd5b906000526020600020906004020160030154611d5c9190612d9b565b9150611d76565b8080611d6e90612f40565b915050611a7b565b5080915050949350505050565b611d8b612553565b6000611d9986868686611a71565b90506000811115611f1857600760008773ffffffffffffffffffffffffffffffffffffffff1673ffffffffffffffffffffffffffffffffffffffff168152602001908152602001600020600182611df09190612e7c565b81548110611e27577f4e487b7100000000000000000000000000000000000000000000000000000000600052603260045260246000fd5b9060005260206000209060060201604051806101000160405290816000820160009054906101000a900473ffffffffffffffffffffffffffffffffffffffff1673ffffffffffffffffffffffffffffffffffffffff1673ffffffffffffffffffffffffffffffffffffffff168152602001600182015481526020016002820154815260200160038201548152602001600482015481526020016005820160009054906101000a900460ff161515151581526020016005820160019054906101000a900460ff161515151581526020016005820160029054906101000a900460ff161515151581525050915050611f7a565b604051806101000160405280600073ffffffffffffffffffffffffffffffffffffffff16815260200160008152602001600081526020016000815260200160008152602001600015158152602001600015158152602001600015158152509150505b949350505050565b6000806000905060005b600860008773ffffffffffffffffffffffffffffffffffffffff1673ffffffffffffffffffffffffffffffffffffffff168152602001908152602001600020805490508110156121ff578673ffffffffffffffffffffffffffffffffffffffff16600860008873ffffffffffffffffffffffffffffffffffffffff1673ffffffffffffffffffffffffffffffffffffffff1681526020019081526020016000208281548110612064577f4e487b7100000000000000000000000000000000000000000000000000000000600052603260045260246000fd5b906000526020600020906004020160000160009054906101000a900473ffffffffffffffffffffffffffffffffffffffff1673ffffffffffffffffffffffffffffffffffffffff16148015612140575084600860008873ffffffffffffffffffffffffffffffffffffffff1673ffffffffffffffffffffffffffffffffffffffff168152602001908152602001600020828154811061212c577f4e487b7100000000000000000000000000000000000000000000000000000000600052603260045260246000fd5b906000526020600020906004020160010154145b80156121d3575083600860008873ffffffffffffffffffffffffffffffffffffffff1673ffffffffffffffffffffffffffffffffffffffff16815260200190815260200160002082815481106121bf577f4e487b7100000000000000000000000000000000000000000000000000000000600052603260045260246000fd5b906000526020600020906004020160020154145b156121ec576001816121e59190612d9b565b91506121ff565b80806121f790612f40565b915050611f8c565b5080915050949350505050565b6000600254905090565b6000600354905090565b61222861121d565b612267576040517f08c379a000000000000000000000000000000000000000000000000000000000815260040161225e90612ce8565b60405180910390fd5b61227081612426565b50565b61227b610b52565b81141561228757600080fd5b8060048190555050565b61229961053f565b8114156122a557600080fd5b8060068190555050565b6122b7610b5c565b8114156122c357600080fd5b8060058190555050565b600080600060016122e033888888611f82565b6122ea9190612e7c565b90503373ffffffffffffffffffffffffffffffffffffffff16600860008873ffffffffffffffffffffffffffffffffffffffff1673ffffffffffffffffffffffffffffffffffffffff168152602001908152602001600020828154811061237a577f4e487b7100000000000000000000000000000000000000000000000000000000600052603260045260246000fd5b906000526020600020906004020160000160009054906101000a900473ffffffffffffffffffffffffffffffffffffffff1673ffffffffffffffffffffffffffffffffffffffff1614156123d157600191506123d6565b600091505b81925050509392505050565b6123ea612216565b8114156123f657600080fd5b8060038190555050565b600033905090565b61241061220c565b81141561241c57600080fd5b8060028190555050565b600073ffffffffffffffffffffffffffffffffffffffff168173ffffffffffffffffffffffffffffffffffffffff161415612496576040517f08c379a000000000000000000000000000000000000000000000000000000000815260040161248d90612c08565b60405180910390fd5b8073ffffffffffffffffffffffffffffffffffffffff1660008054906101000a900473ffffffffffffffffffffffffffffffffffffffff1673ffffffffffffffffffffffffffffffffffffffff167f8be0079c531659141344cd1fd0a4f28419497f9722a3daafe3b4186f6b6457e060405160405180910390a3806000806101000a81548173ffffffffffffffffffffffffffffffffffffffff021916908373ffffffffffffffffffffffffffffffffffffffff16021790555050565b604051806101000160405280600073ffffffffffffffffffffffffffffffffffffffff168152602001600081526020016000815260200160008152602001600081526020016000151581526020016000151581526020016000151581525090565b6040518060800160405280600073ffffffffffffffffffffffffffffffffffffffff1681526020016000815260200160008152602001600081525090565b60008135905061260181613242565b92915050565b60008135905061261681613259565b92915050565b60008135905061262b81613270565b92915050565b60006020828403121561264357600080fd5b6000612651848285016125f2565b91505092915050565b60008060006060848603121561266f57600080fd5b600061267d86828701612607565b935050602061268e8682870161261c565b925050604061269f8682870161261c565b9150509250925092565b600080600080608085870312156126bf57600080fd5b60006126cd878288016125f2565b94505060206126de878288016125f2565b93505060406126ef8782880161261c565b92505060606127008782880161261c565b91505092959194509250565b6000806040838503121561271f57600080fd5b600061272d858286016125f2565b925050602061273e8582860161261c565b9150509250929050565b60008060006060848603121561275d57600080fd5b600061276b868287016125f2565b935050602061277c8682870161261c565b925050604061278d8682870161261c565b9150509250925092565b6000602082840312156127a957600080fd5b60006127b78482850161261c565b91505092915050565b600080600080600060a086880312156127d857600080fd5b60006127e68882890161261c565b95505060206127f788828901612607565b945050604061280888828901612607565b93505060606128198882890161261c565b925050608061282a8882890161261c565b9150509295509295909350565b61284081612f0a565b82525050565b61284f81612eb0565b82525050565b61285e81612eb0565b82525050565b61286d81612ed4565b82525050565b61287c81612ed4565b82525050565b600061288f602683612d8a565b915061289a82612fe7565b604082019050919050565b60006128b2601583612d8a565b91506128bd82613036565b602082019050919050565b60006128d5602883612d8a565b91506128e08261305f565b604082019050919050565b60006128f8602383612d8a565b9150612903826130ae565b604082019050919050565b600061291b601683612d8a565b9150612926826130fd565b602082019050919050565b600061293e601883612d8a565b915061294982613126565b602082019050919050565b6000612961602e83612d8a565b915061296c8261314f565b604082019050919050565b6000612984602083612d8a565b915061298f8261319e565b602082019050919050565b60006129a7601e83612d8a565b91506129b2826131c7565b602082019050919050565b60006129ca600083612d7f565b91506129d5826131f0565b600082019050919050565b60006129ed602183612d8a565b91506129f8826131f3565b604082019050919050565b61010082016000820151612a1a6000850182612846565b506020820151612a2d6020850182612aa5565b506040820151612a406040850182612aa5565b506060820151612a536060850182612aa5565b506080820151612a666080850182612aa5565b5060a0820151612a7960a0850182612864565b5060c0820151612a8c60c0850182612864565b5060e0820151612a9f60e0850182612864565b50505050565b612aae81612f00565b82525050565b612abd81612f00565b82525050565b6000612ace826129bd565b9150819050919050565b6000602082019050612aed6000830184612855565b92915050565b6000606082019050612b086000830186612837565b612b156020830185612837565b612b226040830184612ab4565b949350505050565b6000608082019050612b3f6000830187612855565b612b4c6020830186612ab4565b612b596040830185612ab4565b612b666060830184612ab4565b95945050505050565b600061010082019050612b85600083018b612855565b612b92602083018a612ab4565b612b9f6040830189612ab4565b612bac6060830188612ab4565b612bb96080830187612ab4565b612bc660a0830186612873565b612bd360c0830185612873565b612be060e0830184612873565b9998505050505050505050565b6000602082019050612c026000830184612873565b92915050565b60006020820190508181036000830152612c2181612882565b9050919050565b60006020820190508181036000830152612c41816128a5565b9050919050565b60006020820190508181036000830152612c61816128c8565b9050919050565b60006020820190508181036000830152612c81816128eb565b9050919050565b60006020820190508181036000830152612ca18161290e565b9050919050565b60006020820190508181036000830152612cc181612931565b9050919050565b60006020820190508181036000830152612ce181612954565b9050919050565b60006020820190508181036000830152612d0181612977565b9050919050565b60006020820190508181036000830152612d218161299a565b9050919050565b60006020820190508181036000830152612d41816129e0565b9050919050565b600061010082019050612d5e6000830184612a03565b92915050565b6000602082019050612d796000830184612ab4565b92915050565b600081905092915050565b600082825260208201905092915050565b6000612da682612f00565b9150612db183612f00565b9250827fffffffffffffffffffffffffffffffffffffffffffffffffffffffffffffffff03821115612de657612de5612f89565b5b828201905092915050565b6000612dfc82612f00565b9150612e0783612f00565b925082612e1757612e16612fb8565b5b828204905092915050565b6000612e2d82612f00565b9150612e3883612f00565b9250817fffffffffffffffffffffffffffffffffffffffffffffffffffffffffffffffff0483118215151615612e7157612e70612f89565b5b828202905092915050565b6000612e8782612f00565b9150612e9283612f00565b925082821015612ea557612ea4612f89565b5b828203905092915050565b6000612ebb82612ee0565b9050919050565b6000612ecd82612ee0565b9050919050565b60008115159050919050565b600073ffffffffffffffffffffffffffffffffffffffff82169050919050565b6000819050919050565b6000612f1582612f1c565b9050919050565b6000612f2782612f2e565b9050919050565b6000612f3982612ee0565b9050919050565b6000612f4b82612f00565b91507fffffffffffffffffffffffffffffffffffffffffffffffffffffffffffffffff821415612f7e57612f7d612f89565b5b600182019050919050565b7f4e487b7100000000000000000000000000000000000000000000000000000000600052601160045260246000fd5b7f4e487b7100000000000000000000000000000000000000000000000000000000600052601260045260246000fd5b7f4f776e61626c653a206e6577206f776e657220697320746865207a65726f206160008201527f6464726573730000000000000000000000000000000000000000000000000000602082015250565b7f546865207472616e7366657220686173206661696c0000000000000000000000600082015250565b7f54686520636f6e74726163742068617320616c7265616479206265656e20746560008201527f726d696e61746564000000000000000000000000000000000000000000000000602082015250565b7f546865207472616e7366657220746f20457363726f77204167656e742046616960008201527f6c65640000000000000000000000000000000000000000000000000000000000602082015250565b7f54686520726566756e64696e6720686173206661696c00000000000000000000600082015250565b7f5472616e7366657220746f206f776e6572206661696c65640000000000000000600082015250565b7f4f6e6c7920746865206f7267616e697a6174696f6e2063616e20636f6d706c6560008201527f7465207468652070726f6a656374000000000000000000000000000000000000602082015250565b7f4f776e61626c653a2063616c6c6572206973206e6f7420746865206f776e6572600082015250565b7f5472616e7366657220746f20636f6e7472696275746f72206661696c65640000600082015250565b50565b7f50726f7669646520612076616c6964204f7267616e697a6174696f6e2054797060008201527f6500000000000000000000000000000000000000000000000000000000000000602082015250565b61324b81612eb0565b811461325657600080fd5b50565b61326281612ec2565b811461326d57600080fd5b50565b61327981612f00565b811461328457600080fd5b5056fea26469706673582212209e4af4b34c1723a30ce34df57738a6984cb5a63a1497aade1fe1e5147b9ee41664736f6c63430008040033",
  "linkReferences": {},
  "deployedLinkReferences": {}
}